:1000000080310228880187318E2F00343F34063436
:100010005B344F3466346D347D3407347F346F3451
:0E00200077347C3439345E3479347134803472
:100F1000640080010131890B892F00347030840016
:100F2000003085000A3087318827873120308400DF
:100F3000003085000B3087318827873120008731CA
:100F4000A12F210099171908873970389900FC30B2
:100F5000990523000D108D100D1121008F018E01B8
:100F600007308D0022008D120D13F801F901B82F02
:100F700020000D18BC2FBD2FB82F0530FC00DF302E
:100F8000FB00BE30FA00FA0BC32FFB0BC32FFC0B88
:100F9000C32FCA2F20000D18CE2FCF2FB82FF22F1E
:100FA000F22F22008D160D131530FC004B30FB0084
:100FB000D130FA00FA0BDA2FFB0BDA2FFC0BDA2F09
:100FC000640022008D120D171530FC004B30FB0021
:100FD000D130FA00FA0BEA2FFB0BEA2FFC0BEA2FB9
:100FE0006400F22F20008D18F62FF72FD12F22004A
:100FF0008D120D13B82FB82FB82FB82F80310228BB
:020000040001F9
:02000E00C4D953
:00000001FF
